:020000040800F2
:10000000E0040020D5000008D30B0008D10B000845
:1000100000000000000000000000000000000000E0
:10002000000000000000000000000000D70B0008E6
:100030000000000000000000D50B0008D90B0008EC
:10004000E7000008E7000008E7000008E7000008F4
:10005000E7000008E7000008E7000008E7000008E4
:1000600000000000E7000008E700000800000000B2
:10007000E7000008E7000008E700000800000000B3
:10008000E7000008E700000800000000E7000008A3
:1000900000000000E7000008E7000008E700000893
:1000A00000000000E7000008E7000008E700000883
:1000B000E700000800000000E70000080000000062
:1000C0000348854600F046F80048004785010008CF
:1000D000E00400200448804704480047FEE7FEE7AC
:1000E000FEE7FEE7FEE7FEE7E10B0008C1000008BF
:1000F000D2B201E00270401C491EFBD270470022C0
:10010000F6E710B513460A4604461946FFF7F0FF16
:10011000204610BD70B50446002903D000202022DF
:10012000012310E0002801D00020C043C046C04693
:100130000DE02546D5408D4205D30D469540641B04
:100140001D46954040191546521E002DF1DC2146F2
:1001500070BD00001CB50948009009480190054693
:100160000126009C05E0E36807CC33430C3C98472C
:100170001034AC42F7D3FFF7A7FF0000600E000871
:10018000800E000880B5002007490122D306C3581D
:100190000B50001DC028F8D150070449086000F03A
:1001A00037FD002080BDC0460000002008ED00E0C3
:1001B000F0B581B00E460546052004071C2100223B
:1001C000204600F01BF9681EC1B2022944D8C006BF
:1001D000070E01252A46FA401021204600F00EF9AC
:1001E0002802F840C2B20821204600F007F928048E
:1001F000F840C2B20421204600F000F91748875D9C
:100200003A462A4002262046314600F0F7F8B80761
:10021000C20F1348314600F0F1F87807C20FE90326
:10022000204600F0EBF83807C20F704E30462946E2
:1002300000F0E4F8F806C20F4021204600F0DEF896
:10024000B806C20F2046294600F0D8F87806C20F3B
:100250002021304600F0D2F801B0F0BDC4000020EB
:1002600000140050B0B5044600F0D0F80546601CFC
:1002700002D083480068041900F0C8F8401BA0426F
:10028000FAD3B0BDF0B58BB008900B68002B00D14D
:10029000A9E00E4655480899814201D0022000E0AD
:1002A0000120052109070024089A8A42009400D001
:1002B00000900898203001900A9427462246049620
:1002C0000DE019436960521C33681846D040083469
:1002D0000A99891C0A913F1D002800D183E001255D
:1002E000284690400340EED003900992079406936D
:1002F0007068314610260643122E0DD11C2038405E
:100300000F268640099AD408A400019B1A59B243CB
:100310000E69864016431E510597084603210A467A
:100320000A9FBA40089B1C689443406806460291A5
:100330000E40BE4026431E60D643122815D8854085
:100340002D4A154211D0089DAA683240049BDC68F2
:100350000A9B9C401443AC60C206D20F099B9A4092
:100360006C6803998C4314436C60089BD9683140D6
:10037000049EB2680A9CA2400A43DA60C000069B51
:10038000079C059F099A9ED5182020400F21814087
:10039000029CA243164DAA18146E8C43009981400A
:1003A00021431166134801687068C20301D51943DF
:1003B00000E099430F4A116051688203079C01D500
:1003C000194300E099430B4A51602968C20201D5E4
:1003D000194300E09943099A29606968800200D5B1
:1003E0006FE799436EE70BB0F0BDC04600040050C4
:1003F000001802408018024006000600002A02D0C1
:1004000018228150704728228150704705480068A3
:100410007047C0461A48006802490A681018086008
:100420007047C046DC00002080B5032000F008F8CB
:10043000002801D0012080BD00F024F8002080BDFC
:10044000B0B505460E4801680124002916D07D206C
:10045000C000FFF75FFE014694480068FFF75AFEB0
:1004600000F09CFB032D09D8002807D10024E043AD
:100470002946224600F008F88D4805602046B0BDA8
:10048000D000002070470000002805D40322034656
:100490009343094A9A1803E00C220240074BD218F2
:1004A0008007C00E8901C9B28140FF2383401068D4
:1004B000984308431060704700E400E014ED00E04A
:1004C000F0B583B000284AD00D4602907448006809
:1004D000012101910840A84214D271490868012401
:1004E000A043284308606F4FFFF790FF06466C4813
:1004F00000682040A84205D0FFF788FF801BB84263
:10050000F5D95EE0029B18688107894F0DD5410738
:1005100004D5072109033A680A433A600F2109020A
:100520003A688A43996811433960C0071AD15C4818
:10053000006801263040A84246D959490868B043AE
:100540000860584CFFF762FF054655480068C00731
:100550003AD0FFF75BFF401BA042F6D931E0012003
:1005600003B0F0BD59680429019800D987E08A00DA
:1005700001A39A589746C0468D0500086B060008EF
:100580005D0600087F060008770600083A46083A2C
:100590001268520567D538680722904308433860CF
:1005A000404CFFF733FF0646386838210140029877
:1005B0004068C0008142BAD0FFF728FF801BA042EC
:1005C000F2D9032003B0F0BD029A1078400706D597
:1005D0000720000339688143D068084338603868D1
:1005E0008006400F06D0386838210840082822D1FC
:1005F00050480FE0384608380168381F006800048A
:10060000400F042800D9002080004C4A105889046B
:10061000490FC840396889093C220A402249895853
:100620001F220A40D0402149086021480068FFF796
:1006300007FF03B0F0BD38680840102823D1786860
:10064000C0072BD1381F00680004400F042800D9D0
:1006500000208000394908584000DBE73A46083A54
:100660001268920197D403B0F0BD3A46083A126876
:100670009203F8D58FE77A6D9207F4D58BE7BA6DC0
:100680009207F0D587E73A680A40F003202AC1D0E4
:100690003A680A40182ABDD00020BBE72648B9E7CF
:1006A0000020024088130000000E0008C000002057
:1006B000D40000201E4908688006400F06D0086854
:1006C00038221040082811D11A487047081F0839ED
:1006D000096800680004400F042800D90020800049
:1006E000164A10588904490FC840704708681040DE
:1006F00010280ED14868C00717D1081F00680004F1
:10070000400F042800D9002080000C490858400000
:1007100070470B6813400120C003202B04D00968E8
:100720001140182900D00020704703487047C04688
:100730000810024000366E01006CDC02EC0D00086F
:10074000F0B585B00127002800D1C2E102970390DF
:100750000078C007FC4C1CD1039C207880073ED455
:100760002078000769D42078400700D49DE1F64A3C
:10077000906838210140202900D0ABE0D06D80077F
:1007800000D48FE1E068002800D08BE10020012731
:1007900089E1A06838220240114610394842484198
:1007A000E168082A56D0084054D103984768002FC2
:1007B00008D003988068002855D021690C22914305
:1007C000014321612068052109048F4200D1F0E036
:1007D00001210A04974200D0F3E01043F8E0E74C0F
:1007E000A068E16801273940382606401020704093
:1007F000411848424841002E37D0002835D12068A2
:10080000BE02039A5169002900D1BFE00721C90245
:1008100088439169014321603802216801432160C6
:10082000FFF7F4FD05462068304200D0EEE0FFF708
:10083000EDFD401B0228F6D9DBE0D04A9068382154
:10084000014018292FD1106E80078CD5206A00280E
:1008500089D108E02068800300D47DE703984068D0
:10086000002800D078E7029F33E12068400504D5D6
:1008700003984069002800D12BE12246BC02506851
:10088000E04901400398C06908435060FFF7BEFD8E
:100890000546BA480068204257D1FFF7B7FD401B14
:1008A0000228F6D9A5E0106E216A002900D1B6E031
:1008B000012108431066FFF7A9FD0546AF48006E09
:1008C000800700D54FE7FFF7A1FD401B0327022853
:1008D000F4D9FEE001263107D06B0840019006D123
:1008E000D06B0843D063D06B08400490049800910B
:1008F000A64F3868C0050FD43402386820433860EA
:10090000FFF784FD05463868204205D1FFF77EFDDC
:10091000401B0228F7D9AFE00398C768002F974B18
:100920000AD000698103890F00D1700403210904F2
:100930001A698A4302431A61D86D052F00D180E0FD
:10094000012F00D083E0304386E0002E15D1072030
:10095000C0028A4C21688143039880690843206063
:10096000FFF7A8FEA16889093C220A4084498958FA
:100970001F220A40D0408349086083480068FFF77F
:100980005FFD0028039C00D0A3E0E9E6390288431C
:1009900020601446FFF73AFD05467848006830426B
:1009A00000D1DDE6FFF732FD401B03270228F4D912
:1009B0008FE001218A041043206009042068084365
:1009C00006E0904A521E1040206089042068884347
:1009D000206001204604FFF719FD0546002F10D0C6
:1009E0002068304200D0B7E6FFF710FD401BC82852
:1009F000F6D903276DE0FFF709FD401B0327C82840
:100A000067D85E4800683042F5D1A5E660687D4948
:100A10000140039AD069084360601446A0E60121B2
:100A200088431066FFF7F2FC05465448006E8007C5
:100A300000D498E6FFF7EAFC401B03270228F4D90C
:100A400047E004210843D865D86D304304E0B04343
:100A5000D865D86D04218843D865FFF7D7FC0546D3
:100A60004B4C002F11D04548C06D800711D4FFF7C3
:100A7000CDFC401BA042F6D900200327039C12E0C6
:100A8000FFF7C4FC401BA042F6D83C48C06D80076D
:100A9000F6D401980028039C04D13849C86B009A09
:100AA0009043C8630120002813D0606A00280FD04B
:100AB000324B996838220A40102A0DD10128029F32
:100AC00007D02E48C06801273840A16A884200D16B
:100AD0000027F8B205B0F0BD01252A061968914338
:100AE00019606E0602280FD103950292FFF78EFC63
:100AF0000546224B1868304217D0FFF787FC401B91
:100B000003270228F5D9E4E7D868A843D860FFF79F
:100B10007DFC0446194800683042D9D0FFF776FCC6
:100B2000001B03270228F5D9D3E7A06A00280DD1BE
:100B30005968C90A1C220A4016498958164A914226
:100B400004D2039FC5E7C04600100240D968039A4B
:100B500091430143D9601868029908431860FFF770
:100B600055FC0446054800683042B1D1FFF74EFC01
:100B7000001B03270228F5D9ABE7C046001002404E
:100B8000000E0008C0000020D400002000700040CB
:100B900088130000400E00080024F400401E010EDF
:100BA00001D0012070470749074A50600748036891
:100BB0000B4003218907591801600020906007212C
:100BC00011607047FFFFFF0010E000E020ED00E043
:100BD000FEE770477047704780B5FFF71BFC80BD8C
:100BE00007480168074A0A4007490968114301227A
:100BF00053030B430360D006044908607047C046A6
:100C0000041002400000FFFF040FFF1F08ED00E08A
:100C100094B0FFF709FC00240D940C940B940A94F3
:100C20000994604A10680125284310601068284024
:100C30000590059810680227384310601068384006
:100C4000059005981068202108431060106808403E
:100C500005900598544839462246FFF7CFFB0520FA
:100C60000607524930462246FFF7C8FB504821216B
:100C700003912246FFF7C2FB0C940B940A9502974E
:100C8000099709AF48483946FFF7FCFA0C940B94D2
:100C90000A95E80304905F30099001963046394682
:100CA000FFF7F0FA0C940B940A95039809904048CA
:100CB0003946FFF7E7FA09AE2C213046FFF71FFA55
:100CC0000F9428020E900B20099008940794069424
:100CD00005943848006811940A94374901400498F3
:100CE000081810903046FFF72BFD002800D0FEE7D3
:100CF000029F2C4E0894079406940720059005A89F
:100D00002146FFF7DDFB002800D0FEE703943068A2
:100D1000284330603068284005900C970B950A9561
:100D2000E8020990059809A90198FFF7ABFA244A4F
:100D3000244C039821490860049020480788B8088B
:100D40005043400CC1B20120FFF732FA0525284676
:100D5000FFF788FAB8B26043C60C1B487043000C1A
:100D60000A246043301A81B20220FFF721FA284694
:100D7000FFF778FA7443381B124CC1B20320FFF717
:100D800017FA2846FFF76EFA04980D4A401C1828F7
:100D9000D2D10A490868401C0860C0087C28039822
:100DA000CAD9C6E734100240001400505F8000002A
:100DB00000040050100FFF1FFF1F0000D80000208C
:100DC0007B140000CDCC00009A19000002E008C896
:100DD000121F08C1002AFAD170477047002001E0B5
:100DE00001C1121F002AFBD17047000000093D001D
:100DF00000127A000024F4004086510100366E0192
:100E000000000000000000000000000000000000E2
:100E100000000000000000000000000000000000D2
:100E200001000000020000000300000004000000B8
:100E30000600000007000000080000000900000094
:100E400000093D0000127A000024F40040865101A0
:100E500000366E0100093D0000093D0000093D001B
:100E6000800E000800000020D8000000CC0D000813
:100E7000580F0008D800002008040000DC0D00080E
:100E80000000000000000000000000000000000062
:100E90000000000000000000000000000000000052
:100EA0000000000000000000000000000000000042
:100EB0000000000000000000000000000000000032
:100EC0000000000000000000000000000000000022
:100ED0000000000000000000000000000000000012
:100EE0000000000000000000000000000000000002
:100EF00000000000000000000000000000000000F2
:100F000000000000000000000000000000000000E1
:100F100000000000000000000000000000000000D1
:100F200000000000000000000000000000000000C1
:100F300000000000000000000000000000000000B1
:100F400000127A003F065B4F666D7D077F6F0000E1
:080F5000010000000400000094
:04000005080000C12E
:00000001FF
